{
  "address": "0xCf7Ed3AccA5a467e9e704C703E8D87F634fB0Fc9",
  "abi": [
    {
      "inputs": [
        {
          "internalType": "contract IVotes",
          "name": "_token",
          "type": "address"
        },
        {
          "internalType": "contract TimelockController",
          "name": "_timelock",
          "type": "address"
        },
        {
          "internalType": "uint256",
          "name": "_quorumFraction",
          "type": "uint256"
        },
        {
          "internalType": "uint256",
          "name": "_votingPeriod",
          "type": "uint256"
        },
        {
          "internalType": "uint256",
          "name": "_votingDelay",
          "type": "uint256"
        }
      ],
      "stateMutability": "nonpayable",
      "type": "constructor"
    },
    {
      "inputs": [],
      "name": "Empty",
      "type": "error"
    },
    {
      "anonymous": false,
      "inputs": [
        {
          "indexed": false,
          "internalType": "uint256",
          "name": "proposalId",
          "type": "uint256"
        }
      ],
      "name": "ProposalCanceled",
      "type": "event"
    },
    {
      "anonymous": false,
      "inputs": [
        {
          "indexed": false,
          "internalType": "uint256",
          "name": "proposalId",
          "type": "uint256"
        },
        {
          "indexed": false,
          "internalType": "address",
          "name": "proposer",
          "type": "address"
        },
        {
          "indexed": false,
          "internalType": "address[]",
          "name": "targets",
          "type": "address[]"
        },
        {
          "indexed": false,
          "internalType": "uint256[]",
          "name": "values",
          "type": "uint256[]"
        },
        {
          "indexed": false,
          "internalType": "string[]",
          "name": "signatures",
          "type": "string[]"
        },
        {
          "indexed": false,
          "internalType": "bytes[]",
          "name": "calldatas",
          "type": "bytes[]"
        },
        {
          "indexed": false,
          "internalType": "uint256",
          "name": "startBlock",
          "type": "uint256"
        },
        {
          "indexed": false,
          "internalType": "uint256",
          "name": "endBlock",
          "type": "uint256"
        },
        {
          "indexed": false,
          "internalType": "string",
          "name": "description",
          "type": "string"
        }
      ],
      "name": "ProposalCreated",
      "type": "event"
    },
    {
      "anonymous": false,
      "inputs": [
        {
          "indexed": false,
          "internalType": "uint256",
          "name": "proposalId",
          "type": "uint256"
        }
      ],
      "name": "ProposalExecuted",
      "type": "event"
    },
    {
      "anonymous": false,
      "inputs": [
        {
          "indexed": false,
          "internalType": "uint256",
          "name": "proposalId",
          "type": "uint256"
        },
        {
          "indexed": false,
          "internalType": "uint256",
          "name": "eta",
          "type": "uint256"
        }
      ],
      "name": "ProposalQueued",
      "type": "event"
    },
    {
      "anonymous": false,
      "inputs": [
        {
          "indexed": false,
          "internalType": "uint256",
          "name": "oldProposalThreshold",
          "type": "uint256"
        },
        {
          "indexed": false,
          "internalType": "uint256",
          "name": "newProposalThreshold",
          "type": "uint256"
        }
      ],
      "name": "ProposalThresholdSet",
      "type": "event"
    },
    {
      "anonymous": false,
      "inputs": [
        {
          "indexed": false,
          "internalType": "uint256",
          "name": "oldQuorumNumerator",
          "type": "uint256"
        },
        {
          "indexed": false,
          "internalType": "uint256",
          "name": "newQuorumNumerator",
          "type": "uint256"
        }
      ],
      "name": "QuorumNumeratorUpdated",
      "type": "event"
    },
    {
      "anonymous": false,
      "inputs": [
        {
          "indexed": false,
          "internalType": "address",
          "name": "oldTimelock",
          "type": "address"
        },
        {
          "indexed": false,
          "internalType": "address",
          "name": "newTimelock",
          "type": "address"
        }
      ],
      "name": "TimelockChange",
      "type": "event"
    },
    {
      "anonymous": false,
      "inputs": [
        {
          "indexed": true,
          "internalType": "address",
          "name": "voter",
          "type": "address"
        },
        {
          "indexed": false,
          "internalType": "uint256",
          "name": "proposalId",
          "type": "uint256"
        },
        {
          "indexed": false,
          "internalType": "uint8",
          "name": "support",
          "type": "uint8"
        },
        {
          "indexed": false,
          "internalType": "uint256",
          "name": "weight",
          "type": "uint256"
        },
        {
          "indexed": false,
          "internalType": "string",
          "name": "reason",
          "type": "string"
        }
      ],
      "name": "VoteCast",
      "type": "event"
    },
    {
      "anonymous": false,
      "inputs": [
        {
          "indexed": true,
          "internalType": "address",
          "name": "voter",
          "type": "address"
        },
        {
          "indexed": false,
          "internalType": "uint256",
          "name": "proposalId",
          "type": "uint256"
        },
        {
          "indexed": false,
          "internalType": "uint8",
          "name": "support",
          "type": "uint8"
        },
        {
          "indexed": false,
          "internalType": "uint256",
          "name": "weight",
          "type": "uint256"
        },
        {
          "indexed": false,
          "internalType": "string",
          "name": "reason",
          "type": "string"
        },
        {
          "indexed": false,
          "internalType": "bytes",
          "name": "params",
          "type": "bytes"
        }
      ],
      "name": "VoteCastWithParams",
      "type": "event"
    },
    {
      "anonymous": false,
      "inputs": [
        {
          "indexed": false,
          "internalType": "uint256",
          "name": "oldVotingDelay",
          "type": "uint256"
        },
        {
          "indexed": false,
          "internalType": "uint256",
          "name": "newVotingDelay",
          "type": "uint256"
        }
      ],
      "name": "VotingDelaySet",
      "type": "event"
    },
    {
      "anonymous": false,
      "inputs": [
        {
          "indexed": false,
          "internalType": "uint256",
          "name": "oldVotingPeriod",
          "type": "uint256"
        },
        {
          "indexed": false,
          "internalType": "uint256",
          "name": "newVotingPeriod",
          "type": "uint256"
        }
      ],
      "name": "VotingPeriodSet",
      "type": "event"
    },
    {
      "inputs": [],
      "name": "BALLOT_TYPEHASH",
      "outputs": [
        {
          "internalType": "bytes32",
          "name": "",
          "type": "bytes32"
        }
      ],
      "stateMutability": "view",
      "type": "function"
    },
    {
      "inputs": [],
      "name": "COUNTING_MODE",
      "outputs": [
        {
          "internalType": "string",
          "name": "",
          "type": "string"
        }
      ],
      "stateMutability": "pure",
      "type": "function"
    },
    {
      "inputs": [],
      "name": "EXTENDED_BALLOT_TYPEHASH",
      "outputs": [
        {
          "internalType": "bytes32",
          "name": "",
          "type": "bytes32"
        }
      ],
      "stateMutability": "view",
      "type": "function"
    },
    {
      "inputs": [
        {
          "internalType": "uint256",
          "name": "proposalId",
          "type": "uint256"
        },
        {
          "internalType": "uint8",
          "name": "support",
          "type": "uint8"
        }
      ],
      "name": "castVote",
      "outputs": [
        {
          "internalType": "uint256",
          "name": "",
          "type": "uint256"
        }
      ],
      "stateMutability": "nonpayable",
      "type": "function"
    },
    {
      "inputs": [
        {
          "internalType": "uint256",
          "name": "proposalId",
          "type": "uint256"
        },
        {
          "internalType": "uint8",
          "name": "support",
          "type": "uint8"
        },
        {
          "internalType": "uint8",
          "name": "v",
          "type": "uint8"
        },
        {
          "internalType": "bytes32",
          "name": "r",
          "type": "bytes32"
        },
        {
          "internalType": "bytes32",
          "name": "s",
          "type": "bytes32"
        }
      ],
      "name": "castVoteBySig",
      "outputs": [
        {
          "internalType": "uint256",
          "name": "",
          "type": "uint256"
        }
      ],
      "stateMutability": "nonpayable",
      "type": "function"
    },
    {
      "inputs": [
        {
          "internalType": "uint256",
          "name": "proposalId",
          "type": "uint256"
        },
        {
          "internalType": "uint8",
          "name": "support",
          "type": "uint8"
        },
        {
          "internalType": "string",
          "name": "reason",
          "type": "string"
        }
      ],
      "name": "castVoteWithReason",
      "outputs": [
        {
          "internalType": "uint256",
          "name": "",
          "type": "uint256"
        }
      ],
      "stateMutability": "nonpayable",
      "type": "function"
    },
    {
      "inputs": [
        {
          "internalType": "uint256",
          "name": "proposalId",
          "type": "uint256"
        },
        {
          "internalType": "uint8",
          "name": "support",
          "type": "uint8"
        },
        {
          "internalType": "string",
          "name": "reason",
          "type": "string"
        },
        {
          "internalType": "bytes",
          "name": "params",
          "type": "bytes"
        }
      ],
      "name": "castVoteWithReasonAndParams",
      "outputs": [
        {
          "internalType": "uint256",
          "name": "",
          "type": "uint256"
        }
      ],
      "stateMutability": "nonpayable",
      "type": "function"
    },
    {
      "inputs": [
        {
          "internalType": "uint256",
          "name": "proposalId",
          "type": "uint256"
        },
        {
          "internalType": "uint8",
          "name": "support",
          "type": "uint8"
        },
        {
          "internalType": "string",
          "name": "reason",
          "type": "string"
        },
        {
          "internalType": "bytes",
          "name": "params",
          "type": "bytes"
        },
        {
          "internalType": "uint8",
          "name": "v",
          "type": "uint8"
        },
        {
          "internalType": "bytes32",
          "name": "r",
          "type": "bytes32"
        },
        {
          "internalType": "bytes32",
          "name": "s",
          "type": "bytes32"
        }
      ],
      "name": "castVoteWithReasonAndParamsBySig",
      "outputs": [
        {
          "internalType": "uint256",
          "name": "",
          "type": "uint256"
        }
      ],
      "stateMutability": "nonpayable",
      "type": "function"
    },
    {
      "inputs": [
        {
          "internalType": "address[]",
          "name": "targets",
          "type": "address[]"
        },
        {
          "internalType": "uint256[]",
          "name": "values",
          "type": "uint256[]"
        },
        {
          "internalType": "bytes[]",
          "name": "calldatas",
          "type": "bytes[]"
        },
        {
          "internalType": "bytes32",
          "name": "descriptionHash",
          "type": "bytes32"
        }
      ],
      "name": "execute",
      "outputs": [
        {
          "internalType": "uint256",
          "name": "",
          "type": "uint256"
        }
      ],
      "stateMutability": "payable",
      "type": "function"
    },
    {
      "inputs": [
        {
          "internalType": "address",
          "name": "account",
          "type": "address"
        },
        {
          "internalType": "uint256",
          "name": "blockNumber",
          "type": "uint256"
        }
      ],
      "name": "getVotes",
      "outputs": [
        {
          "internalType": "uint256",
          "name": "",
          "type": "uint256"
        }
      ],
      "stateMutability": "view",
      "type": "function"
    },
    {
      "inputs": [
        {
          "internalType": "address",
          "name": "account",
          "type": "address"
        },
        {
          "internalType": "uint256",
          "name": "blockNumber",
          "type": "uint256"
        },
        {
          "internalType": "bytes",
          "name": "params",
          "type": "bytes"
        }
      ],
      "name": "getVotesWithParams",
      "outputs": [
        {
          "internalType": "uint256",
          "name": "",
          "type": "uint256"
        }
      ],
      "stateMutability": "view",
      "type": "function"
    },
    {
      "inputs": [
        {
          "internalType": "uint256",
          "name": "proposalId",
          "type": "uint256"
        },
        {
          "internalType": "address",
          "name": "account",
          "type": "address"
        }
      ],
      "name": "hasVoted",
      "outputs": [
        {
          "internalType": "bool",
          "name": "",
          "type": "bool"
        }
      ],
      "stateMutability": "view",
      "type": "function"
    },
    {
      "inputs": [
        {
          "internalType": "address[]",
          "name": "targets",
          "type": "address[]"
        },
        {
          "internalType": "uint256[]",
          "name": "values",
          "type": "uint256[]"
        },
        {
          "internalType": "bytes[]",
          "name": "calldatas",
          "type": "bytes[]"
        },
        {
          "internalType": "bytes32",
          "name": "descriptionHash",
          "type": "bytes32"
        }
      ],
      "name": "hashProposal",
      "outputs": [
        {
          "internalType": "uint256",
          "name": "",
          "type": "uint256"
        }
      ],
      "stateMutability": "pure",
      "type": "function"
    },
    {
      "inputs": [],
      "name": "name",
      "outputs": [
        {
          "internalType": "string",
          "name": "",
          "type": "string"
        }
      ],
      "stateMutability": "view",
      "type": "function"
    },
    {
      "inputs": [
        {
          "internalType": "address",
          "name": "",
          "type": "address"
        },
        {
          "internalType": "address",
          "name": "",
          "type": "address"
        },
        {
          "internalType": "uint256[]",
          "name": "",
          "type": "uint256[]"
        },
        {
          "internalType": "uint256[]",
          "name": "",
          "type": "uint256[]"
        },
        {
          "internalType": "bytes",
          "name": "",
          "type": "bytes"
        }
      ],
      "name": "onERC1155BatchReceived",
      "outputs": [
        {
          "internalType": "bytes4",
          "name": "",
          "type": "bytes4"
        }
      ],
      "stateMutability": "nonpayable",
      "type": "function"
    },
    {
      "inputs": [
        {
          "internalType": "address",
          "name": "",
          "type": "address"
        },
        {
          "internalType": "address",
          "name": "",
          "type": "address"
        },
        {
          "internalType": "uint256",
          "name": "",
          "type": "uint256"
        },
        {
          "internalType": "uint256",
          "name": "",
          "type": "uint256"
        },
        {
          "internalType": "bytes",
          "name": "",
          "type": "bytes"
        }
      ],
      "name": "onERC1155Received",
      "outputs": [
        {
          "internalType": "bytes4",
          "name": "",
          "type": "bytes4"
        }
      ],
      "stateMutability": "nonpayable",
      "type": "function"
    },
    {
      "inputs": [
        {
          "internalType": "address",
          "name": "",
          "type": "address"
        },
        {
          "internalType": "address",
          "name": "",
          "type": "address"
        },
        {
          "internalType": "uint256",
          "name": "",
          "type": "uint256"
        },
        {
          "internalType": "bytes",
          "name": "",
          "type": "bytes"
        }
      ],
      "name": "onERC721Received",
      "outputs": [
        {
          "internalType": "bytes4",
          "name": "",
          "type": "bytes4"
        }
      ],
      "stateMutability": "nonpayable",
      "type": "function"
    },
    {
      "inputs": [
        {
          "internalType": "uint256",
          "name": "proposalId",
          "type": "uint256"
        }
      ],
      "name": "proposalDeadline",
      "outputs": [
        {
          "internalType": "uint256",
          "name": "",
          "type": "uint256"
        }
      ],
      "stateMutability": "view",
      "type": "function"
    },
    {
      "inputs": [
        {
          "internalType": "uint256",
          "name": "proposalId",
          "type": "uint256"
        }
      ],
      "name": "proposalEta",
      "outputs": [
        {
          "internalType": "uint256",
          "name": "",
          "type": "uint256"
        }
      ],
      "stateMutability": "view",
      "type": "function"
    },
    {
      "inputs": [
        {
          "internalType": "uint256",
          "name": "proposalId",
          "type": "uint256"
        }
      ],
      "name": "proposalSnapshot",
      "outputs": [
        {
          "internalType": "uint256",
          "name": "",
          "type": "uint256"
        }
      ],
      "stateMutability": "view",
      "type": "function"
    },
    {
      "inputs": [],
      "name": "proposalThreshold",
      "outputs": [
        {
          "internalType": "uint256",
          "name": "",
          "type": "uint256"
        }
      ],
      "stateMutability": "view",
      "type": "function"
    },
    {
      "inputs": [
        {
          "internalType": "uint256",
          "name": "proposalId",
          "type": "uint256"
        }
      ],
      "name": "proposalVotes",
      "outputs": [
        {
          "internalType": "uint256",
          "name": "againstVotes",
          "type": "uint256"
        },
        {
          "internalType": "uint256",
          "name": "forVotes",
          "type": "uint256"
        },
        {
          "internalType": "uint256",
          "name": "abstainVotes",
          "type": "uint256"
        }
      ],
      "stateMutability": "view",
      "type": "function"
    },
    {
      "inputs": [
        {
          "internalType": "address[]",
          "name": "targets",
          "type": "address[]"
        },
        {
          "internalType": "uint256[]",
          "name": "values",
          "type": "uint256[]"
        },
        {
          "internalType": "bytes[]",
          "name": "calldatas",
          "type": "bytes[]"
        },
        {
          "internalType": "string",
          "name": "description",
          "type": "string"
        }
      ],
      "name": "propose",
      "outputs": [
        {
          "internalType": "uint256",
          "name": "",
          "type": "uint256"
        }
      ],
      "stateMutability": "nonpayable",
      "type": "function"
    },
    {
      "inputs": [
        {
          "internalType": "address[]",
          "name": "targets",
          "type": "address[]"
        },
        {
          "internalType": "uint256[]",
          "name": "values",
          "type": "uint256[]"
        },
        {
          "internalType": "bytes[]",
          "name": "calldatas",
          "type": "bytes[]"
        },
        {
          "internalType": "bytes32",
          "name": "descriptionHash",
          "type": "bytes32"
        }
      ],
      "name": "queue",
      "outputs": [
        {
          "internalType": "uint256",
          "name": "",
          "type": "uint256"
        }
      ],
      "stateMutability": "nonpayable",
      "type": "function"
    },
    {
      "inputs": [
        {
          "internalType": "uint256",
          "name": "blockNumber",
          "type": "uint256"
        }
      ],
      "name": "quorum",
      "outputs": [
        {
          "internalType": "uint256",
          "name": "",
          "type": "uint256"
        }
      ],
      "stateMutability": "view",
      "type": "function"
    },
    {
      "inputs": [],
      "name": "quorumDenominator",
      "outputs": [
        {
          "internalType": "uint256",
          "name": "",
          "type": "uint256"
        }
      ],
      "stateMutability": "view",
      "type": "function"
    },
    {
      "inputs": [],
      "name": "quorumNumerator",
      "outputs": [
        {
          "internalType": "uint256",
          "name": "",
          "type": "uint256"
        }
      ],
      "stateMutability": "view",
      "type": "function"
    },
    {
      "inputs": [
        {
          "internalType": "address",
          "name": "target",
          "type": "address"
        },
        {
          "internalType": "uint256",
          "name": "value",
          "type": "uint256"
        },
        {
          "internalType": "bytes",
          "name": "data",
          "type": "bytes"
        }
      ],
      "name": "relay",
      "outputs": [],
      "stateMutability": "nonpayable",
      "type": "function"
    },
    {
      "inputs": [
        {
          "internalType": "uint256",
          "name": "newProposalThreshold",
          "type": "uint256"
        }
      ],
      "name": "setProposalThreshold",
      "outputs": [],
      "stateMutability": "nonpayable",
      "type": "function"
    },
    {
      "inputs": [
        {
          "internalType": "uint256",
          "name": "newVotingDelay",
          "type": "uint256"
        }
      ],
      "name": "setVotingDelay",
      "outputs": [],
      "stateMutability": "nonpayable",
      "type": "function"
    },
    {
      "inputs": [
        {
          "internalType": "uint256",
          "name": "newVotingPeriod",
          "type": "uint256"
        }
      ],
      "name": "setVotingPeriod",
      "outputs": [],
      "stateMutability": "nonpayable",
      "type": "function"
    },
    {
      "inputs": [
        {
          "internalType": "uint256",
          "name": "proposalId",
          "type": "uint256"
        }
      ],
      "name": "state",
      "outputs": [
        {
          "internalType": "enum IGovernor.ProposalState",
          "name": "",
          "type": "uint8"
        }
      ],
      "stateMutability": "view",
      "type": "function"
    },
    {
      "inputs": [
        {
          "internalType": "bytes4",
          "name": "interfaceId",
          "type": "bytes4"
        }
      ],
      "name": "supportsInterface",
      "outputs": [
        {
          "internalType": "bool",
          "name": "",
          "type": "bool"
        }
      ],
      "stateMutability": "view",
      "type": "function"
    },
    {
      "inputs": [],
      "name": "timelock",
      "outputs": [
        {
          "internalType": "address",
          "name": "",
          "type": "address"
        }
      ],
      "stateMutability": "view",
      "type": "function"
    },
    {
      "inputs": [],
      "name": "token",
      "outputs": [
        {
          "internalType": "contract IVotes",
          "name": "",
          "type": "address"
        }
      ],
      "stateMutability": "view",
      "type": "function"
    },
    {
      "inputs": [
        {
          "internalType": "uint256",
          "name": "newQuorumNumerator",
          "type": "uint256"
        }
      ],
      "name": "updateQuorumNumerator",
      "outputs": [],
      "stateMutability": "nonpayable",
      "type": "function"
    },
    {
      "inputs": [
        {
          "internalType": "contract TimelockController",
          "name": "newTimelock",
          "type": "address"
        }
      ],
      "name": "updateTimelock",
      "outputs": [],
      "stateMutability": "nonpayable",
      "type": "function"
    },
    {
      "inputs": [],
      "name": "version",
      "outputs": [
        {
          "internalType": "string",
          "name": "",
          "type": "string"
        }
      ],
      "stateMutability": "view",
      "type": "function"
    },
    {
      "inputs": [],
      "name": "votingDelay",
      "outputs": [
        {
          "internalType": "uint256",
          "name": "",
          "type": "uint256"
        }
      ],
      "stateMutability": "view",
      "type": "function"
    },
    {
      "inputs": [],
      "name": "votingPeriod",
      "outputs": [
        {
          "internalType": "uint256",
          "name": "",
          "type": "uint256"
        }
      ],
      "stateMutability": "view",
      "type": "function"
    },
    {
      "stateMutability": "payable",
      "type": "receive"
    }
  ],
  "transactionHash": "0x6e8df581487cc615918a0f55d1970dca2bb66e1f5663f140447942415a4bd5c1",
  "args": [
    "0x5FbDB2315678afecb367f032d93F642f64180aa3",
    "0x9fE46736679d2D9a65F0992F2272dE9f3c7fa6e0",
    4,
    40,
    1
  ],
  "numDeployments": 1,
  "solcInputHash": "52b8f335fad7c89ca59817f806c2421a",
  "bytecode": "0x6101606040523480156200001257600080fd5b5060405162003d5f38038062003d5f8339810160408190526200003591620004a9565b838386838560006040518060400160405280601081526020016f11dbdd995c9b9bdc90dbdb9d1c9858dd60821b81525080620000766200017360201b60201c565b815160208084019190912082518383012060e08290526101008190524660a0818152604080517f8b73c3c69bb8fe3d512ecc4cf759cc79239f7b179b0ffacaa9a75d522b39400f81880181905281830187905260608201869052608082019490945230818401528151808203909301835260c00190528051940193909320919290916080523060c05261012052505082516200011c9250600091506020840190620003ea565b506200012a9050836200018e565b6200013582620001cf565b620001408162000276565b5050506001600160a01b0316610140526200015b81620002b7565b50620001678162000381565b5050505050506200053e565b6040805180820190915260018152603160f81b602082015290565b60045460408051918252602082018390527fc565b045403dc03c2eea82b81a0465edad9e2e7fc4d97e11421c209da93d7a93910160405180910390a1600455565b60008111620002355760405162461bcd60e51b815260206004820152602760248201527f476f7665726e6f7253657474696e67733a20766f74696e6720706572696f6420604482015266746f6f206c6f7760c81b60648201526084015b60405180910390fd5b60055460408051918252602082018390527f7e3f7f0708a84de9203036abaa450dccc85ad5ff52f78c170f3edb55cf5e8828910160405180910390a1600555565b60065460408051918252602082018390527fccb45da8d5717e6c4544694297c4ba5cf151d455c9bb0ed4fc7a38411bc05461910160405180910390a1600655565b60648111156200033c5760405162461bcd60e51b815260206004820152604360248201527f476f7665726e6f72566f74657351756f72756d4672616374696f6e3a2071756f60448201527f72756d4e756d657261746f72206f7665722071756f72756d44656e6f6d696e616064820152623a37b960e91b608482015260a4016200022c565b600880549082905560408051828152602081018490527f0553476bf02ef2726e8ce5ced78d63e26e602e4a2257b1f559418e24b4633997910160405180910390a15050565b600954604080516001600160a01b03928316815291831660208301527f08f74ea46ef7894f65eabfb5e6e695de773a000b47c529ab559178069b226401910160405180910390a1600980546001600160a01b0319166001600160a01b0392909216919091179055565b828054620003f89062000501565b90600052602060002090601f0160209004810192826200041c576000855562000467565b82601f106200043757805160ff191683800117855562000467565b8280016001018555821562000467579182015b82811115620004675782518255916020019190600101906200044a565b506200047592915062000479565b5090565b5b808211156200047557600081556001016200047a565b6001600160a01b0381168114620004a657600080fd5b50565b600080600080600060a08688031215620004c257600080fd5b8551620004cf8162000490565b6020870151909550620004e28162000490565b6040870151606088015160809098015196999198509695945092505050565b600181811c908216806200051657607f821691505b602082108114156200053857634e487b7160e01b600052602260045260246000fd5b50919050565b60805160a05160c05160e0516101005161012051610140516137b8620005a76000396000818161084b01528181611ca40152611eae01526000612039015260006120880152600061206301526000611fbc01526000611fe60152600061201001526137b86000f3fe60806040526004361061023f5760003560e01c80637d5e81e21161012e578063c59057e4116100ab578063eb9019d41161006f578063eb9019d4146107ad578063ece40cc1146107cd578063f23a6e61146107ed578063f8ce560a14610819578063fc0c546a1461083957600080fd5b8063c59057e4146106c1578063d33219b4146106e1578063dd4e2ba514610713578063deaaa7cc14610759578063ea0217cf1461078d57600080fd5b8063ab58fb8e116100f2578063ab58fb8e14610620578063b58131b014610640578063bc197c8114610655578063c01f9e3714610681578063c28bc2fa146106a157600080fd5b80637d5e81e21461059757806397c3d334146105b75780639a802a6d146105cb578063a7713a70146105eb578063a890c9101461060057600080fd5b80633932abb1116101bc57806354fd4d501161018057806354fd4d50146104ed57806356781388146105175780635f398a141461053757806370b0f660146105575780637b3c71d31461057757600080fd5b80633932abb1146103ec5780633bccf4fd146104015780633e4f49e614610421578063438596321461044e578063544ffc9c1461049857600080fd5b8063150b7a0211610203578063150b7a0214610321578063160cbed7146103655780632656227d146103855780632d63f693146103985780632fe3e261146103b857600080fd5b806301ffc9a71461026757806302a251a31461029c57806303420181146102bf57806306f3f9e6146102df57806306fdde03146102ff57600080fd5b36610262573061024d61086d565b6001600160a01b03161461026057600080fd5b005b600080fd5b34801561027357600080fd5b506102876102823660046128bb565b610886565b60405190151581526020015b60405180910390f35b3480156102a857600080fd5b506102b1610897565b604051908152602001610293565b3480156102cb57600080fd5b506102b16102da366004612a00565b6108a2565b3480156102eb57600080fd5b506102606102fa366004612aa6565b61099a565b34801561030b57600080fd5b50610314610a32565b6040516102939190612b1b565b34801561032d57600080fd5b5061034c61033c366004612b43565b630a85bd0160e11b949350505050565b6040516001600160e01b03199091168152602001610293565b34801561037157600080fd5b506102b1610380366004612d1f565b610ac4565b6102b1610393366004612d1f565b610ce2565b3480156103a457600080fd5b506102b16103b3366004612aa6565b610dcf565b3480156103c457600080fd5b506102b17fb3b3f3b703cd84ce352197dcff232b1b5d3cfb2025ce47cf04742d0651f1af8881565b3480156103f857600080fd5b506102b1610e06565b34801561040d57600080fd5b506102b161041c366004612dae565b610e11565b34801561042d57600080fd5b5061044161043c366004612aa6565b610e87565b6040516102939190612e12565b34801561045a57600080fd5b50610287610469366004612e3a565b60008281526007602090815260408083206001600160a01b038516845260030190915290205460ff1692915050565b3480156104a457600080fd5b506104d26104b3366004612aa6565b6000908152600760205260409020805460018201546002909201549092565b60408051938452602084019290925290820152606001610293565b3480156104f957600080fd5b506040805180820190915260018152603160f81b6020820152610314565b34801561052357600080fd5b506102b1610532366004612e6a565b610e92565b34801561054357600080fd5b506102b1610552366004612e96565b610ebb565b34801561056357600080fd5b50610260610572366004612aa6565b610f05565b34801561058357600080fd5b506102b1610592366004612f19565b610f91565b3480156105a357600080fd5b506102b16105b2366004612f72565b610fe3565b3480156105c357600080fd5b5060646102b1565b3480156105d757600080fd5b506102b16105e6366004613026565b610ffa565b3480156105f757600080fd5b506008546102b1565b34801561060c57600080fd5b5061026061061b36600461307e565b611011565b34801561062c57600080fd5b506102b161063b366004612aa6565b61109d565b34801561064c57600080fd5b506102b1611146565b34801561066157600080fd5b5061034c61067036600461309b565b63bc197c8160e01b95945050505050565b34801561068d57600080fd5b506102b161069c366004612aa6565b611151565b3480156106ad57600080fd5b506102606106bc36600461312e565b611180565b3480156106cd57600080fd5b506102b16106dc366004612d1f565b61124c565b3480156106ed57600080fd5b506009546001600160a01b03165b6040516001600160a01b039091168152602001610293565b34801561071f57600080fd5b506040805180820190915260208082527f737570706f72743d627261766f2671756f72756d3d666f722c6162737461696e90820152610314565b34801561076557600080fd5b506102b17f150214d74d59b7d1e90c73fc22ef3d991dd0a76b046543d4d80ab92d2a50328f81565b34801561079957600080fd5b506102606107a8366004612aa6565b611286565b3480156107b957600080fd5b506102b16107c8366004613171565b611312565b3480156107d957600080fd5b506102606107e8366004612aa6565b611333565b3480156107f957600080fd5b5061034c61080836600461319d565b63f23a6e6160e01b95945050505050565b34801561082557600080fd5b506102b1610834366004612aa6565b6113bf565b34801561084557600080fd5b506106fb7f000000000000000000000000000000000000000000000000000000000000000081565b60006108816009546001600160a01b031690565b905090565b6000610891826113ca565b92915050565b600061088160055490565b60008061094661093e7fb3b3f3b703cd84ce352197dcff232b1b5d3cfb2025ce47cf04742d0651f1af888c8c8c8c6040516108de929190613205565b60405180910390208b80519060200120604051602001610923959493929190948552602085019390935260ff9190911660408401526060830152608082015260a00190565b604051602081830303815290604052805190602001206113ef565b86868661143d565b905061098c8a828b8b8b8080601f0160208091040260200160405190810160405280939291908181526020018383808284376000920191909152508d925061145b915050565b9a9950505050505050505050565b6109a261086d565b6001600160a01b0316336001600160a01b0316146109db5760405162461bcd60e51b81526004016109d290613215565b60405180910390fd5b306109e461086d565b6001600160a01b031614610a265760008036604051610a04929190613205565b604051809103902090505b80610a1a60026115bd565b14610a2457610a0f565b505b610a2f8161163c565b50565b606060008054610a419061324c565b80601f0160208091040260200160405190810160405280929190818152602001828054610a6d9061324c565b8015610aba5780601f10610a8f57610100808354040283529160200191610aba565b820191906000526020600020905b815481529060010190602001808311610a9d57829003601f168201915b5050505050905090565b600080610ad38686868661124c565b90506004610ae082610e87565b6007811115610af157610af1612dfc565b14610b0e5760405162461bcd60e51b81526004016109d290613287565b6009546040805163793d064960e11b815290516000926001600160a01b03169163f27a0c92916004808301926020929190829003018186803b158015610b5357600080fd5b505afa158015610b67573d6000803e3d6000fd5b505050506040513d601f19601f82011682018060405250810190610b8b91906132c8565b60095460405163b1c5f42760e01b81529192506001600160a01b03169063b1c5f42790610bc5908a908a908a906000908b906004016133aa565b60206040518083038186803b158015610bdd57600080fd5b505afa158015610bf1573d6000803e3d6000fd5b505050506040513d601f19601f82011682018060405250810190610c1591906132c8565b6000838152600a60205260408082209290925560095491516308f2a0bb60e41b81526001600160a01b0390921691638f2a0bb091610c60918b918b918b91908b9089906004016133f8565b600060405180830381600087803b158015610c7a57600080fd5b505af1158015610c8e573d6000803e3d6000fd5b505050507f9a2e42fd6722813d69113e7d0079d3d940171428df7373df9c7f7617cfda2892828242610cc09190613466565b6040805192835260208301919091520160405180910390a15095945050505050565b600080610cf18686868661124c565b90506000610cfe82610e87565b90506004816007811115610d1457610d14612dfc565b1480610d3157506005816007811115610d2f57610d2f612dfc565b145b610d4d5760405162461bcd60e51b81526004016109d290613287565b600082815260016020818152604092839020600201805460ff191690921790915590518381527f712ae1383f79ac853f8d882153778e0260ef8f03b504e2866e0593e04d2b291f910160405180910390a1610dab8288888888611704565b610db882888888886117a6565b610dc582888888886117b3565b5095945050505050565b60008181526001602090815260408083208151928301909152546001600160401b0316908190525b6001600160401b031692915050565b600061088160045490565b604080517f150214d74d59b7d1e90c73fc22ef3d991dd0a76b046543d4d80ab92d2a50328f602082015290810186905260ff851660608201526000908190610e5f9061093e90608001610923565b9050610e7c878288604051806020016040528060008152506117ec565b979650505050505050565b60006108918261180f565b600080339050610eb3848285604051806020016040528060008152506117ec565b949350505050565b600080339050610e7c87828888888080601f0160208091040260200160405190810160405280939291908181526020018383808284376000920191909152508a925061145b915050565b610f0d61086d565b6001600160a01b0316336001600160a01b031614610f3d5760405162461bcd60e51b81526004016109d290613215565b30610f4661086d565b6001600160a01b031614610f885760008036604051610f66929190613205565b604051809103902090505b80610f7c60026115bd565b14610f8657610f71565b505b610a2f81611977565b600080339050610fd986828787878080601f0160208091040260200160405190810160405280939291908181526020018383808284376000920191909152506117ec92505050565b9695505050505050565b6000610ff1858585856119b8565b95945050505050565b6000611007848484611c7b565b90505b9392505050565b61101961086d565b6001600160a01b0316336001600160a01b0316146110495760405162461bcd60e51b81526004016109d290613215565b3061105261086d565b6001600160a01b0316146110945760008036604051611072929190613205565b604051809103902090505b8061108860026115bd565b146110925761107d565b505b610a2f81611d20565b6009546000828152600a602052604080822054905163d45c443560e01b81526004810191909152909182916001600160a01b039091169063d45c44359060240160206040518083038186803b1580156110f557600080fd5b505afa158015611109573d6000803e3d6000fd5b505050506040513d601f19601f8201168201806040525081019061112d91906132c8565b90508060011461113d578061100a565b60009392505050565b600061088160065490565b60008181526001602081815260408084208151928301909152909101546001600160401b031690819052610df7565b61118861086d565b6001600160a01b0316336001600160a01b0316146111b85760405162461bcd60e51b81526004016109d290613215565b306111c161086d565b6001600160a01b03161461120357600080366040516111e1929190613205565b604051809103902090505b806111f760026115bd565b14611201576111ec565b505b6112458483838080601f016020809104026020016040519081016040528093929190818152602001838380828437600092019190915250889250611d89915050565b5050505050565b600084848484604051602001611265949392919061347e565b60408051601f19818403018152919052805160209091012095945050505050565b61128e61086d565b6001600160a01b0316336001600160a01b0316146112be5760405162461bcd60e51b81526004016109d290613215565b306112c761086d565b6001600160a01b03161461130957600080366040516112e7929190613205565b604051809103902090505b806112fd60026115bd565b14611307576112f2565b505b610a2f81611daf565b600061100a838361132e60408051602081019091526000815290565b611c7b565b61133b61086d565b6001600160a01b0316336001600160a01b03161461136b5760405162461bcd60e51b81526004016109d290613215565b3061137461086d565b6001600160a01b0316146113b65760008036604051611394929190613205565b604051809103902090505b806113aa60026115bd565b146113b45761139f565b505b610a2f81611e50565b600061089182611e91565b60006001600160e01b03198216636e665ced60e01b1480610891575061089182611f44565b60006108916113fc611faf565b8360405161190160f01b6020820152602281018390526042810182905260009060620160405160208183030381529060405280519060200120905092915050565b600080600061144e878787876120d6565b91509150610dc5816121c3565b600085815260016020819052604082209061147588610e87565b600781111561148657611486612dfc565b146114df5760405162461bcd60e51b815260206004820152602360248201527f476f7665726e6f723a20766f7465206e6f742063757272656e746c792061637460448201526269766560e81b60648201526084016109d2565b604080516020810190915281546001600160401b03169081905260009061150890889086611c7b565b9050611517888888848861237e565b835161156957866001600160a01b03167fb8e138887d0aa13bab447e82de9d5c1777041ecd21ca36ba824ff1e6c07ddda48988848960405161155c94939291906134c9565b60405180910390a2610e7c565b866001600160a01b03167fe2babfbac5889a709b63bb7f598b324e08bc5a4fb9ec647fb3cbc9ec07eb871289888489896040516115aa9594939291906134f1565b60405180910390a2979650505050505050565b60006115d88254600f81810b600160801b909204900b131590565b156115f657604051631ed9509560e11b815260040160405180910390fd5b508054600f0b6000818152600180840160205260408220805492905583546fffffffffffffffffffffffffffffffff191692016001600160801b03169190911790915590565b60648111156116bf5760405162461bcd60e51b815260206004820152604360248201527f476f7665726e6f72566f74657351756f72756d4672616374696f6e3a2071756f60448201527f72756d4e756d657261746f72206f7665722071756f72756d44656e6f6d696e616064820152623a37b960e91b608482015260a4016109d2565b600880549082905560408051828152602081018490527f0553476bf02ef2726e8ce5ced78d63e26e602e4a2257b1f559418e24b4633997910160405180910390a15050565b3061170d61086d565b6001600160a01b0316146112455760005b845181101561179e57306001600160a01b031685828151811061174357611743613537565b60200260200101516001600160a01b0316141561178e5761178e83828151811061176f5761176f613537565b60200260200101518051906020012060026124fd90919063ffffffff16565b6117978161354d565b905061171e565b505050505050565b6112458585858585612539565b306117bc61086d565b6001600160a01b03161461124557600254600f81810b600160801b909204900b1315611245576000600255611245565b6000610ff18585858561180a60408051602081019091526000815290565b61145b565b60008061181b836125ad565b9050600481600781111561183157611831612dfc565b1461183c5792915050565b6000838152600a602052604090205480611857575092915050565b600954604051632ab0f52960e01b8152600481018390526001600160a01b0390911690632ab0f5299060240160206040518083038186803b15801561189b57600080fd5b505afa1580156118af573d6000803e3d6000fd5b505050506040513d601f19601f820116820180604052508101906118d39190613568565b156118e2575060079392505050565b600954604051632c258a9f60e11b8152600481018390526001600160a01b039091169063584b153e9060240160206040518083038186803b15801561192657600080fd5b505afa15801561193a573d6000803e3d6000fd5b505050506040513d601f19601f8201168201806040525081019061195e9190613568565b1561196d575060059392505050565b5060029392505050565b60045460408051918252602082018390527fc565b045403dc03c2eea82b81a0465edad9e2e7fc4d97e11421c209da93d7a93910160405180910390a1600455565b60006119c2611146565b6119d1336107c860014361358a565b1015611a395760405162461bcd60e51b815260206004820152603160248201527f476f7665726e6f723a2070726f706f73657220766f7465732062656c6f7720706044820152701c9bdc1bdcd85b081d1a1c995cda1bdb19607a1b60648201526084016109d2565b6000611a4e868686868051906020012061124c565b90508451865114611a715760405162461bcd60e51b81526004016109d2906135a1565b8351865114611a925760405162461bcd60e51b81526004016109d2906135a1565b6000865111611ae35760405162461bcd60e51b815260206004820152601860248201527f476f7665726e6f723a20656d7074792070726f706f73616c000000000000000060448201526064016109d2565b600081815260016020908152604091829020825191820190925281546001600160401b03169081905215611b635760405162461bcd60e51b815260206004820152602160248201527f476f7665726e6f723a2070726f706f73616c20616c72656164792065786973746044820152607360f81b60648201526084016109d2565b6000611b75611b70610e06565b6126b9565b611b7e436126b9565b611b8891906135e2565b90506000611b97611b70610897565b611ba190836135e2565b835467ffffffffffffffff19166001600160401b038416178455905060018301805467ffffffffffffffff19166001600160401b0383161790557f7d84a6263ae0d98d3329bd7b46bb4e8d6f98cd35a7adb45c274c8b7fd5ebd5e084338b8b8d516001600160401b03811115611c1957611c19612943565b604051908082528060200260200182016040528015611c4c57816020015b6060815260200190600190039081611c375790505b508c88888e604051611c669998979695949392919061360d565b60405180910390a15091979650505050505050565b604051630748d63560e31b81526001600160a01b038481166004830152602482018490526000917f000000000000000000000000000000000000000000000000000000000000000090911690633a46b1a89060440160206040518083038186803b158015611ce857600080fd5b505afa158015611cfc573d6000803e3d6000fd5b505050506040513d601f19601f8201168201806040525081019061100791906132c8565b600954604080516001600160a01b03928316815291831660208301527f08f74ea46ef7894f65eabfb5e6e695de773a000b47c529ab559178069b226401910160405180910390a1600980546001600160a01b0319166001600160a01b0392909216919091179055565b606061100784848460405180606001604052806029815260200161375a60299139612725565b60008111611e0f5760405162461bcd60e51b815260206004820152602760248201527f476f7665726e6f7253657474696e67733a20766f74696e6720706572696f6420604482015266746f6f206c6f7760c81b60648201526084016109d2565b60055460408051918252602082018390527f7e3f7f0708a84de9203036abaa450dccc85ad5ff52f78c170f3edb55cf5e8828910160405180910390a1600555565b60065460408051918252602082018390527fccb45da8d5717e6c4544694297c4ba5cf151d455c9bb0ed4fc7a38411bc05461910160405180910390a1600655565b60006064600854604051632394e7a360e21b8152600481018590527f00000000000000000000000000000000000000000000000000000000000000006001600160a01b031690638e539e8c9060240160206040518083038186803b158015611ef857600080fd5b505afa158015611f0c573d6000803e3d6000fd5b505050506040513d601f19601f82011682018060405250810190611f3091906132c8565b611f3a91906136fc565b610891919061371b565b60006001600160e01b0319821663bf26d89760e01b1480611f7557506001600160e01b031982166379dd796f60e01b145b80611f9057506001600160e01b03198216630271189760e51b145b8061089157506301ffc9a760e01b6001600160e01b0319831614610891565b6000306001600160a01b037f00000000000000000000000000000000000000000000000000000000000000001614801561200857507f000000000000000000000000000000000000000000000000000000000000000046145b1561203257507f000000000000000000000000000000000000000000000000000000000000000090565b50604080517f00000000000000000000000000000000000000000000000000000000000000006020808301919091527f0000000000000000000000000000000000000000000000000000000000000000828401527f000000000000000000000000000000000000000000000000000000000000000060608301524660808301523060a0808401919091528351808403909101815260c0909201909252805191012090565b6000807f7fffffffffffffffffffffffffffffff5d576e7357a4501ddfe92f46681b20a083111561210d57506000905060036121ba565b8460ff16601b1415801561212557508460ff16601c14155b1561213657506000905060046121ba565b6040805160008082526020820180845289905260ff881692820192909252606081018690526080810185905260019060a0016020604051602081039080840390855afa15801561218a573d6000803e3d6000fd5b5050604051601f1901519150506001600160a01b0381166121b3576000600192509250506121ba565b9150600090505b94509492505050565b60008160048111156121d7576121d7612dfc565b14156121e05750565b60018160048111156121f4576121f4612dfc565b14156122425760405162461bcd60e51b815260206004820152601860248201527f45434453413a20696e76616c6964207369676e6174757265000000000000000060448201526064016109d2565b600281600481111561225657612256612dfc565b14156122a45760405162461bcd60e51b815260206004820152601f60248201527f45434453413a20696e76616c6964207369676e6174757265206c656e6774680060448201526064016109d2565b60038160048111156122b8576122b8612dfc565b14156123115760405162461bcd60e51b815260206004820152602260248201527f45434453413a20696e76616c6964207369676e6174757265202773272076616c604482015261756560f01b60648201526084016109d2565b600481600481111561232557612325612dfc565b1415610a2f5760405162461bcd60e51b815260206004820152602260248201527f45434453413a20696e76616c6964207369676e6174757265202776272076616c604482015261756560f01b60648201526084016109d2565b60008581526007602090815260408083206001600160a01b0388168452600381019092529091205460ff16156124065760405162461bcd60e51b815260206004820152602760248201527f476f7665726e6f72566f74696e6753696d706c653a20766f746520616c726561604482015266191e4818d85cdd60ca1b60648201526084016109d2565b6001600160a01b03851660009081526003820160205260408120805460ff1916600117905560ff168460ff161415612457578281600001600082825461244c9190613466565b9091555061179e9050565b60ff841660011415612477578281600101600082825461244c9190613466565b60ff841660021415612497578281600201600082825461244c9190613466565b60405162461bcd60e51b815260206004820152603560248201527f476f7665726e6f72566f74696e6753696d706c653a20696e76616c69642076616044820152746c756520666f7220656e756d20566f74655479706560581b60648201526084016109d2565b8154600160801b90819004600f0b6000818152600180860160205260409091209390935583546001600160801b03908116939091011602179055565b60095460405163e38335e560e01b81526001600160a01b039091169063e38335e59034906125749088908890889060009089906004016133aa565b6000604051808303818588803b15801561258d57600080fd5b505af11580156125a1573d6000803e3d6000fd5b50505050505050505050565b6000818152600160205260408120600281015460ff16156125d15750600792915050565b6002810154610100900460ff16156125ec5750600292915050565b60006125f784610dcf565b9050806126465760405162461bcd60e51b815260206004820152601d60248201527f476f7665726e6f723a20756e6b6e6f776e2070726f706f73616c20696400000060448201526064016109d2565b438110612657575060009392505050565b600061266285611151565b905043811061267657506001949350505050565b61267f8561284b565b801561269e575060008581526007602052604090208054600190910154115b156126ae57506004949350505050565b506003949350505050565b60006001600160401b038211156127215760405162461bcd60e51b815260206004820152602660248201527f53616665436173743a2076616c756520646f65736e27742066697420696e203660448201526534206269747360d01b60648201526084016109d2565b5090565b6060824710156127865760405162461bcd60e51b815260206004820152602660248201527f416464726573733a20696e73756666696369656e742062616c616e636520666f6044820152651c8818d85b1b60d21b60648201526084016109d2565b6001600160a01b0385163b6127dd5760405162461bcd60e51b815260206004820152601d60248201527f416464726573733a2063616c6c20746f206e6f6e2d636f6e747261637400000060448201526064016109d2565b600080866001600160a01b031685876040516127f9919061373d565b60006040518083038185875af1925050503d8060008114612836576040519150601f19603f3d011682016040523d82523d6000602084013e61283b565b606091505b5091509150610e7c828286612882565b60008181526007602052604081206002810154600182015461286d9190613466565b61287961083485610dcf565b11159392505050565b6060831561289157508161100a565b8251156128a15782518084602001fd5b8160405162461bcd60e51b81526004016109d29190612b1b565b6000602082840312156128cd57600080fd5b81356001600160e01b03198116811461100a57600080fd5b803560ff811681146128f657600080fd5b919050565b60008083601f84011261290d57600080fd5b5081356001600160401b0381111561292457600080fd5b60208301915083602082850101111561293c57600080fd5b9250929050565b634e487b7160e01b600052604160045260246000fd5b604051601f8201601f191681016001600160401b038111828210171561298157612981612943565b604052919050565b60006001600160401b038311156129a2576129a2612943565b6129b5601f8401601f1916602001612959565b90508281528383830111156129c957600080fd5b828260208301376000602084830101529392505050565b600082601f8301126129f157600080fd5b61100a83833560208501612989565b60008060008060008060008060e0898b031215612a1c57600080fd5b88359750612a2c60208a016128e5565b965060408901356001600160401b0380821115612a4857600080fd5b612a548c838d016128fb565b909850965060608b0135915080821115612a6d57600080fd5b50612a7a8b828c016129e0565b945050612a8960808a016128e5565b925060a0890135915060c089013590509295985092959890939650565b600060208284031215612ab857600080fd5b5035919050565b60005b83811015612ada578181015183820152602001612ac2565b83811115612ae9576000848401525b50505050565b60008151808452612b07816020860160208601612abf565b601f01601f19169290920160200192915050565b60208152600061100a6020830184612aef565b6001600160a01b0381168114610a2f57600080fd5b60008060008060808587031215612b5957600080fd5b8435612b6481612b2e565b93506020850135612b7481612b2e565b92506040850135915060608501356001600160401b03811115612b9657600080fd5b612ba2878288016129e0565b91505092959194509250565b60006001600160401b03821115612bc757612bc7612943565b5060051b60200190565b600082601f830112612be257600080fd5b81356020612bf7612bf283612bae565b612959565b82815260059290921b84018101918181019086841115612c1657600080fd5b8286015b84811015612c3a578035612c2d81612b2e565b8352918301918301612c1a565b509695505050505050565b600082601f830112612c5657600080fd5b81356020612c66612bf283612bae565b82815260059290921b84018101918181019086841115612c8557600080fd5b8286015b84811015612c3a5780358352918301918301612c89565b600082601f830112612cb157600080fd5b81356020612cc1612bf283612bae565b82815260059290921b84018101918181019086841115612ce057600080fd5b8286015b84811015612c3a5780356001600160401b03811115612d035760008081fd5b612d118986838b01016129e0565b845250918301918301612ce4565b60008060008060808587031215612d3557600080fd5b84356001600160401b0380821115612d4c57600080fd5b612d5888838901612bd1565b95506020870135915080821115612d6e57600080fd5b612d7a88838901612c45565b94506040870135915080821115612d9057600080fd5b50612d9d87828801612ca0565b949793965093946060013593505050565b600080600080600060a08688031215612dc657600080fd5b85359450612dd6602087016128e5565b9350612de4604087016128e5565b94979396509394606081013594506080013592915050565b634e487b7160e01b600052602160045260246000fd5b6020810160088310612e3457634e487b7160e01b600052602160045260246000fd5b91905290565b60008060408385031215612e4d57600080fd5b823591506020830135612e5f81612b2e565b809150509250929050565b60008060408385031215612e7d57600080fd5b82359150612e8d602084016128e5565b90509250929050565b600080600080600060808688031215612eae57600080fd5b85359450612ebe602087016128e5565b935060408601356001600160401b0380821115612eda57600080fd5b612ee689838a016128fb565b90955093506060880135915080821115612eff57600080fd5b50612f0c888289016129e0565b9150509295509295909350565b60008060008060608587031215612f2f57600080fd5b84359350612f3f602086016128e5565b925060408501356001600160401b03811115612f5a57600080fd5b612f66878288016128fb565b95989497509550505050565b60008060008060808587031215612f8857600080fd5b84356001600160401b0380821115612f9f57600080fd5b612fab88838901612bd1565b95506020870135915080821115612fc157600080fd5b612fcd88838901612c45565b94506040870135915080821115612fe357600080fd5b612fef88838901612ca0565b9350606087013591508082111561300557600080fd5b508501601f8101871361301757600080fd5b612ba287823560208401612989565b60008060006060848603121561303b57600080fd5b833561304681612b2e565b92506020840135915060408401356001600160401b0381111561306857600080fd5b613074868287016129e0565b9150509250925092565b60006020828403121561309057600080fd5b813561100a81612b2e565b600080600080600060a086880312156130b357600080fd5b85356130be81612b2e565b945060208601356130ce81612b2e565b935060408601356001600160401b03808211156130ea57600080fd5b6130f689838a01612c45565b9450606088013591508082111561310c57600080fd5b61311889838a01612c45565b93506080880135915080821115612eff57600080fd5b6000806000806060858703121561314457600080fd5b843561314f81612b2e565b93506020850135925060408501356001600160401b03811115612f5a57600080fd5b6000806040838503121561318457600080fd5b823561318f81612b2e565b946020939093013593505050565b600080600080600060a086880312156131b557600080fd5b85356131c081612b2e565b945060208601356131d081612b2e565b9350604086013592506060860135915060808601356001600160401b038111156131f957600080fd5b612f0c888289016129e0565b8183823760009101908152919050565b60208082526018908201527f476f7665726e6f723a206f6e6c79476f7665726e616e63650000000000000000604082015260600190565b600181811c9082168061326057607f821691505b6020821081141561328157634e487b7160e01b600052602260045260246000fd5b50919050565b60208082526021908201527f476f7665726e6f723a2070726f706f73616c206e6f74207375636365737366756040820152601b60fa1b606082015260800190565b6000602082840312156132da57600080fd5b5051919050565b600081518084526020808501945080840160005b8381101561331a5781516001600160a01b0316875295820195908201906001016132f5565b509495945050505050565b600081518084526020808501945080840160005b8381101561331a57815187529582019590820190600101613339565b600081518084526020808501808196508360051b8101915082860160005b8581101561339d57828403895261338b848351612aef565b98850198935090840190600101613373565b5091979650505050505050565b60a0815260006133bd60a08301886132e1565b82810360208401526133cf8188613325565b905082810360408401526133e38187613355565b60608401959095525050608001529392505050565b60c08152600061340b60c08301896132e1565b828103602084015261341d8189613325565b905082810360408401526134318188613355565b60608401969096525050608081019290925260a0909101529392505050565b634e487b7160e01b600052601160045260246000fd5b6000821982111561347957613479613450565b500190565b60808152600061349160808301876132e1565b82810360208401526134a38187613325565b905082810360408401526134b78186613355565b91505082606083015295945050505050565b84815260ff84166020820152826040820152608060608201526000610fd96080830184612aef565b85815260ff8516602082015283604082015260a06060820152600061351960a0830185612aef565b828103608084015261352b8185612aef565b98975050505050505050565b634e487b7160e01b600052603260045260246000fd5b600060001982141561356157613561613450565b5060010190565b60006020828403121561357a57600080fd5b8151801515811461100a57600080fd5b60008282101561359c5761359c613450565b500390565b60208082526021908201527f476f7665726e6f723a20696e76616c69642070726f706f73616c206c656e67746040820152600d60fb1b606082015260800190565b60006001600160401b0380831681851680830382111561360457613604613450565b01949350505050565b60006101208b8352602060018060a01b038c16818501528160408501526136368285018c6132e1565b9150838203606085015261364a828b613325565b915083820360808501528189518084528284019150828160051b850101838c0160005b8381101561369b57601f19878403018552613689838351612aef565b9486019492509085019060010161366d565b505086810360a08801526136af818c613355565b9450505050506136ca60c08401876001600160401b03169052565b6001600160401b03851660e08401528281036101008401526136ec8185612aef565b9c9b505050505050505050505050565b600081600019048311821515161561371657613716613450565b500290565b60008261373857634e487b7160e01b600052601260045260246000fd5b500490565b6000825161374f818460208701612abf565b919091019291505056fe416464726573733a206c6f772d6c6576656c2063616c6c20776974682076616c7565206661696c6564a2646970667358221220c8cc503d5c8bedc5040606fa798dfbf6c75ba45c1ba69e42f4b240d2c411020264736f6c63430008090033",
  "devdoc": {
    "errors": {
      "Empty()": [
        {
          "details": "An operation (e.g. {front}) couldn't be completed due to the queue being empty."
        }
      ]
    },
    "kind": "dev",
    "methods": {
      "COUNTING_MODE()": {
        "details": "See {IGovernor-COUNTING_MODE}."
      },
      "castVote(uint256,uint8)": {
        "details": "See {IGovernor-castVote}."
      },
      "castVoteBySig(uint256,uint8,uint8,bytes32,bytes32)": {
        "details": "See {IGovernor-castVoteBySig}."
      },
      "castVoteWithReason(uint256,uint8,string)": {
        "details": "See {IGovernor-castVoteWithReason}."
      },
      "castVoteWithReasonAndParams(uint256,uint8,string,bytes)": {
        "details": "See {IGovernor-castVoteWithReasonAndParams}."
      },
      "castVoteWithReasonAndParamsBySig(uint256,uint8,string,bytes,uint8,bytes32,bytes32)": {
        "details": "See {IGovernor-castVoteWithReasonAndParamsBySig}."
      },
      "execute(address[],uint256[],bytes[],bytes32)": {
        "details": "See {IGovernor-execute}."
      },
      "getVotes(address,uint256)": {
        "details": "See {IGovernor-getVotes}."
      },
      "getVotesWithParams(address,uint256,bytes)": {
        "details": "See {IGovernor-getVotesWithParams}."
      },
      "hasVoted(uint256,address)": {
        "details": "See {IGovernor-hasVoted}."
      },
      "hashProposal(address[],uint256[],bytes[],bytes32)": {
        "details": "See {IGovernor-hashProposal}. The proposal id is produced by hashing the RLC encoded `targets` array, the `values` array, the `calldatas` array and the descriptionHash (bytes32 which itself is the keccak256 hash of the description string). This proposal id can be produced from the proposal data which is part of the {ProposalCreated} event. It can even be computed in advance, before the proposal is submitted. Note that the chainId and the governor address are not part of the proposal id computation. Consequently, the same proposal (with same operation and same description) will have the same id if submitted on multiple governors across multiple networks. This also means that in order to execute the same operation twice (on the same governor) the proposer will have to change the description in order to avoid proposal id conflicts."
      },
      "name()": {
        "details": "See {IGovernor-name}."
      },
      "onERC1155BatchReceived(address,address,uint256[],uint256[],bytes)": {
        "details": "See {IERC1155Receiver-onERC1155BatchReceived}."
      },
      "onERC1155Received(address,address,uint256,uint256,bytes)": {
        "details": "See {IERC1155Receiver-onERC1155Received}."
      },
      "onERC721Received(address,address,uint256,bytes)": {
        "details": "See {IERC721Receiver-onERC721Received}."
      },
      "proposalDeadline(uint256)": {
        "details": "See {IGovernor-proposalDeadline}."
      },
      "proposalEta(uint256)": {
        "details": "Public accessor to check the eta of a queued proposal"
      },
      "proposalSnapshot(uint256)": {
        "details": "See {IGovernor-proposalSnapshot}."
      },
      "proposalVotes(uint256)": {
        "details": "Accessor to the internal vote counts."
      },
      "queue(address[],uint256[],bytes[],bytes32)": {
        "details": "Function to queue a proposal to the timelock."
      },
      "quorumDenominator()": {
        "details": "Returns the quorum denominator. Defaults to 100, but may be overridden."
      },
      "quorumNumerator()": {
        "details": "Returns the current quorum numerator. See {quorumDenominator}."
      },
      "relay(address,uint256,bytes)": {
        "details": "Relays a transaction or function call to an arbitrary target. In cases where the governance executor is some contract other than the governor itself, like when using a timelock, this function can be invoked in a governance proposal to recover tokens or Ether that was sent to the governor contract by mistake. Note that if the executor is simply the governor itself, use of `relay` is redundant."
      },
      "setProposalThreshold(uint256)": {
        "details": "Update the proposal threshold. This operation can only be performed through a governance proposal. Emits a {ProposalThresholdSet} event."
      },
      "setVotingDelay(uint256)": {
        "details": "Update the voting delay. This operation can only be performed through a governance proposal. Emits a {VotingDelaySet} event."
      },
      "setVotingPeriod(uint256)": {
        "details": "Update the voting period. This operation can only be performed through a governance proposal. Emits a {VotingPeriodSet} event."
      },
      "timelock()": {
        "details": "Public accessor to check the address of the timelock"
      },
      "updateQuorumNumerator(uint256)": {
        "details": "Changes the quorum numerator. Emits a {QuorumNumeratorUpdated} event. Requirements: - Must be called through a governance proposal. - New numerator must be smaller or equal to the denominator."
      },
      "updateTimelock(address)": {
        "details": "Public endpoint to update the underlying timelock instance. Restricted to the timelock itself, so updates must be proposed, scheduled, and executed through governance proposals. CAUTION: It is not recommended to change the timelock while there are other queued governance proposals."
      },
      "version()": {
        "details": "See {IGovernor-version}."
      }
    },
    "version": 1
  },
  "userdoc": {
    "kind": "user",
    "methods": {},
    "version": 1
  },
  "storageLayout": {
    "storage": [
      {
        "astId": 602,
        "contract": "contracts/GovernorContract.sol:GovernorContract",
        "label": "_name",
        "offset": 0,
        "slot": "0",
        "type": "t_string_storage"
      },
      {
        "astId": 607,
        "contract": "contracts/GovernorContract.sol:GovernorContract",
        "label": "_proposals",
        "offset": 0,
        "slot": "1",
        "type": "t_mapping(t_uint256,t_struct(ProposalCore)600_storage)"
      },
      {
        "astId": 610,
        "contract": "contracts/GovernorContract.sol:GovernorContract",
        "label": "_governanceCall",
        "offset": 0,
        "slot": "2",
        "type": "t_struct(Bytes32Deque)7575_storage"
      },
      {
        "astId": 3262,
        "contract": "contracts/GovernorContract.sol:GovernorContract",
        "label": "_votingDelay",
        "offset": 0,
        "slot": "4",
        "type": "t_uint256"
      },
      {
        "astId": 3264,
        "contract": "contracts/GovernorContract.sol:GovernorContract",
        "label": "_votingPeriod",
        "offset": 0,
        "slot": "5",
        "type": "t_uint256"
      },
      {
        "astId": 3266,
        "contract": "contracts/GovernorContract.sol:GovernorContract",
        "label": "_proposalThreshold",
        "offset": 0,
        "slot": "6",
        "type": "t_uint256"
      },
      {
        "astId": 3054,
        "contract": "contracts/GovernorContract.sol:GovernorContract",
        "label": "_proposalVotes",
        "offset": 0,
        "slot": "7",
        "type": "t_mapping(t_uint256,t_struct(ProposalVote)3049_storage)"
      },
      {
        "astId": 3859,
        "contract": "contracts/GovernorContract.sol:GovernorContract",
        "label": "_quorumNumerator",
        "offset": 0,
        "slot": "8",
        "type": "t_uint256"
      },
      {
        "astId": 3445,
        "contract": "contracts/GovernorContract.sol:GovernorContract",
        "label": "_timelock",
        "offset": 0,
        "slot": "9",
        "type": "t_contract(TimelockController)3028"
      },
      {
        "astId": 3449,
        "contract": "contracts/GovernorContract.sol:GovernorContract",
        "label": "_timelockIds",
        "offset": 0,
        "slot": "10",
        "type": "t_mapping(t_uint256,t_bytes32)"
      }
    ],
    "types": {
      "t_address": {
        "encoding": "inplace",
        "label": "address",
        "numberOfBytes": "20"
      },
      "t_bool": {
        "encoding": "inplace",
        "label": "bool",
        "numberOfBytes": "1"
      },
      "t_bytes32": {
        "encoding": "inplace",
        "label": "bytes32",
        "numberOfBytes": "32"
      },
      "t_contract(TimelockController)3028": {
        "encoding": "inplace",
        "label": "contract TimelockController",
        "numberOfBytes": "20"
      },
      "t_int128": {
        "encoding": "inplace",
        "label": "int128",
        "numberOfBytes": "16"
      },
      "t_mapping(t_address,t_bool)": {
        "encoding": "mapping",
        "key": "t_address",
        "label": "mapping(address => bool)",
        "numberOfBytes": "32",
        "value": "t_bool"
      },
      "t_mapping(t_int128,t_bytes32)": {
        "encoding": "mapping",
        "key": "t_int128",
        "label": "mapping(int128 => bytes32)",
        "numberOfBytes": "32",
        "value": "t_bytes32"
      },
      "t_mapping(t_uint256,t_bytes32)": {
        "encoding": "mapping",
        "key": "t_uint256",
        "label": "mapping(uint256 => bytes32)",
        "numberOfBytes": "32",
        "value": "t_bytes32"
      },
      "t_mapping(t_uint256,t_struct(ProposalCore)600_storage)": {
        "encoding": "mapping",
        "key": "t_uint256",
        "label": "mapping(uint256 => struct Governor.ProposalCore)",
        "numberOfBytes": "32",
        "value": "t_struct(ProposalCore)600_storage"
      },
      "t_mapping(t_uint256,t_struct(ProposalVote)3049_storage)": {
        "encoding": "mapping",
        "key": "t_uint256",
        "label": "mapping(uint256 => struct GovernorCountingSimple.ProposalVote)",
        "numberOfBytes": "32",
        "value": "t_struct(ProposalVote)3049_storage"
      },
      "t_string_storage": {
        "encoding": "bytes",
        "label": "string",
        "numberOfBytes": "32"
      },
      "t_struct(BlockNumber)6375_storage": {
        "encoding": "inplace",
        "label": "struct Timers.BlockNumber",
        "members": [
          {
            "astId": 6374,
            "contract": "contracts/GovernorContract.sol:GovernorContract",
            "label": "_deadline",
            "offset": 0,
            "slot": "0",
            "type": "t_uint64"
          }
        ],
        "numberOfBytes": "32"
      },
      "t_struct(Bytes32Deque)7575_storage": {
        "encoding": "inplace",
        "label": "struct DoubleEndedQueue.Bytes32Deque",
        "members": [
          {
            "astId": 7568,
            "contract": "contracts/GovernorContract.sol:GovernorContract",
            "label": "_begin",
            "offset": 0,
            "slot": "0",
            "type": "t_int128"
          },
          {
            "astId": 7570,
            "contract": "contracts/GovernorContract.sol:GovernorContract",
            "label": "_end",
            "offset": 16,
            "slot": "0",
            "type": "t_int128"
          },
          {
            "astId": 7574,
            "contract": "contracts/GovernorContract.sol:GovernorContract",
            "label": "_data",
            "offset": 0,
            "slot": "1",
            "type": "t_mapping(t_int128,t_bytes32)"
          }
        ],
        "numberOfBytes": "64"
      },
      "t_struct(ProposalCore)600_storage": {
        "encoding": "inplace",
        "label": "struct Governor.ProposalCore",
        "members": [
          {
            "astId": 592,
            "contract": "contracts/GovernorContract.sol:GovernorContract",
            "label": "voteStart",
            "offset": 0,
            "slot": "0",
            "type": "t_struct(BlockNumber)6375_storage"
          },
          {
            "astId": 595,
            "contract": "contracts/GovernorContract.sol:GovernorContract",
            "label": "voteEnd",
            "offset": 0,
            "slot": "1",
            "type": "t_struct(BlockNumber)6375_storage"
          },
          {
            "astId": 597,
            "contract": "contracts/GovernorContract.sol:GovernorContract",
            "label": "executed",
            "offset": 0,
            "slot": "2",
            "type": "t_bool"
          },
          {
            "astId": 599,
            "contract": "contracts/GovernorContract.sol:GovernorContract",
            "label": "canceled",
            "offset": 1,
            "slot": "2",
            "type": "t_bool"
          }
        ],
        "numberOfBytes": "96"
      },
      "t_struct(ProposalVote)3049_storage": {
        "encoding": "inplace",
        "label": "struct GovernorCountingSimple.ProposalVote",
        "members": [
          {
            "astId": 3040,
            "contract": "contracts/GovernorContract.sol:GovernorContract",
            "label": "againstVotes",
            "offset": 0,
            "slot": "0",
            "type": "t_uint256"
          },
          {
            "astId": 3042,
            "contract": "contracts/GovernorContract.sol:GovernorContract",
            "label": "forVotes",
            "offset": 0,
            "slot": "1",
            "type": "t_uint256"
          },
          {
            "astId": 3044,
            "contract": "contracts/GovernorContract.sol:GovernorContract",
            "label": "abstainVotes",
            "offset": 0,
            "slot": "2",
            "type": "t_uint256"
          },
          {
            "astId": 3048,
            "contract": "contracts/GovernorContract.sol:GovernorContract",
            "label": "hasVoted",
            "offset": 0,
            "slot": "3",
            "type": "t_mapping(t_address,t_bool)"
          }
        ],
        "numberOfBytes": "128"
      },
      "t_uint256": {
        "encoding": "inplace",
        "label": "uint256",
        "numberOfBytes": "32"
      },
      "t_uint64": {
        "encoding": "inplace",
        "label": "uint64",
        "numberOfBytes": "8"
      }
    }
  }
}